:020000040000FA
:0400000007EF00F016
:100008005082B6ED0FF090EF13F0000E366E000E32
:10001800356E000E396E040E386E040E381839101D
:10002800D8A419EF00F01BEF00F042EF00F03550B4
:100038003610D8A422EF00F024EF00F042EF00F0D1
:1000480038C033F02050080DB60EF324D96E000ED8
:10005800F420DA6EDF50346E332A35EF00F0D89092
:100068003432332E33EF00F03450010B376E37B093
:1000780002D0809001D08080DDEF05F0030E3818A3
:100088003910D8A44AEF00F04CEF00F073EF00F0FD
:1000980035503610D8A453EF00F055EF00F073EF49
:1000A80000F038C033F02050080DB60EF324D96E96
:1000B800000EF420DA6EDF50346E332A66EF00F05B
:1000C800D8903432332E64EF00F03450010B376E81
:1000D80037B002D0819001D08180DDEF05F0020EAB
:1000E80038183910D8A47BEF00F07DEF00F0A4EFAA
:1000F80000F035503610D8A484EF00F086EF00F0F9
:10010800A4EF00F038C033F02050080DB60EF324E9
:10011800D96E000EF420DA6EDF50346E332A97EF72
:1001280000F0D8903432332E95EF00F03450010BA4
:10013800376E37B002D0829001D08280DDEF05F0B3
:1001480038043910D8A4ABEF00F0ADEF00F0D4EFCD
:1001580000F035503610D8A4B4EF00F0B6EF00F038
:10016800D4EF00F038C033F02050080DB60EF32459
:10017800D96E000EF420DA6EDF50346E332AC7EFE2
:1001880000F0D8903432332EC5EF00F03450010B14
:10019800376E37B002D0839001D08380DDEF05F051
:1001A800040E38183910D8A4DCEF00F0DEEF00F0A8
:1001B80005EF01F035043610D8A4E5EF00F0E7EFBD
:1001C80000F005EF01F038C033F02050080DB70EED
:1001D800F324D96E000EF420DA6EDF50346E332A21
:1001E800F8EF00F0D8903432332EF6EF00F03450A8
:1001F800010B376E37B002D0809201D08082DDEFDC
:1002080005F0030E38183910D8A40DEF01F00FEFE0
:1002180001F036EF01F035043610D8A416EF01F0DE
:1002280018EF01F036EF01F038C033F02050080D18
:10023800B70EF324D96E000EF420DA6EDF50346E58
:10024800332A29EF01F0D8903432332E27EF01F00A
:100258003450010B376E37B002D0819201D08182C1
:10026800DDEF05F0020E38183910D8A43EEF01F082
:1002780040EF01F067EF01F035043610D8A447EFDE
:1002880001F049EF01F067EF01F038C033F020507A
:10029800080DB70EF324D96E000EF420DA6EDF5085
:1002A800346E332A5AEF01F0D8903432332E58EF97
:1002B80001F03450010B376E37B002D0829201D072
:1002C8008282DDEF05F038043910D8A46EEF01F012
:1002D80070EF01F097EF01F035043610D8A477EFEE
:1002E80001F079EF01F097EF01F038C033F02050BA
:1002F800080DB70EF324D96E000EF420DA6EDF5025
:10030800346E332A8AEF01F0D8903432332E88EFD6
:1003180001F03450010B376E37B002D0839201D010
:100328008382DDEF05F0040E38183910D8A49FEF4A
:1003380001F0A1EF01F0C9EF01F0020E35183610F7
:10034800D8A4A9EF01F0ABEF01F0C9EF01F038C074
:1003580033F02050080DB80EF324D96E000EF420A7
:10036800DA6EDF50346E332ABCEF01F0D8903432A5
:10037800332EBAEF01F03450010B376E37B002D08C
:10038800809401D08084DDEF05F0030E3818391011
:10039800D8A4D1EF01F0D3EF01F0FBEF01F0020E8A
:1003A80035183610D8A4DBEF01F0DDEF01F0FBEFD4
:1003B80001F038C033F02050080DB80EF324D96E80
:1003C800000EF420DA6EDF50346E332AEEEF01F0BF
:1003D800D8903432332EECEF01F03450010B376EE5
:1003E80037B002D0819401D08184DDEF05F0020E90
:1003F80038183910D8A403EF02F005EF02F02DEFFA
:1004080002F0020E35183610D8A40DEF02F00FEFE7
:1004180002F02DEF02F038C033F02050080DB80E6E
:10042800F324D96E000EF420DA6EDF50346E332ACE
:1004380020EF02F0D8903432332E1EEF02F0345001
:10044800010B376E37B002D0829401D08284DDEF81
:1004580005F038043910D8A434EF02F036EF02F072
:100468005EEF02F0020E35183610D8A43EEF02F007
:1004780040EF02F05EEF02F038C033F02050080D74
:10048800B80EF324D96E000EF420DA6EDF50346E05
:10049800332A51EF02F0D8903432332E4FEF02F066
:1004A8003450010B376E37B002D0839401D0838467
:1004B800DDEF05F0040E38183910D8A466EF02F005
:1004C80068EF02F090EF02F0030E35183610D8A44A
:1004D80070EF02F072EF02F090EF02F038C033F0E4
:1004E8002050080DB90EF324D96E000EF420DA6EF0
:1004F800DF50346E332A83EF02F0D8903432332E33
:1005080081EF02F03450010B376E37B002D080967D
:1005180001D08086DDEF05F0030E38183910D8A415
:1005280098EF02F09AEF02F0C2EF02F0030E3518CE
:100538003610D8A4A2EF02F0A4EF02F0C2EF02F046
:1005480038C033F02050080DB90EF324D96E000ED0
:10055800F420DA6EDF50346E332AB5EF02F0D8900B
:100568003432332EB3EF02F03450010B376E37B00C
:1005780002D0819601D08186DDEF05F0020E381891
:100588003910D8A4CAEF02F0CCEF02F0F4EF02F071
:10059800030E35183610D8A4D4EF02F0D6EF02F0C7
:1005A800F4EF02F038C033F02050080DB90EF324F0
:1005B800D96E000EF420DA6EDF50346E332AE7EF7E
:1005C80002F0D8903432332EE5EF02F03450010BAC
:1005D800376E37B002D0829601D08286DDEF05F003
:1005E80038043910D8A4FBEF02F0FDEF02F025EF34
:1005F80003F0030E35183610D8A405EF03F007EF03
:1006080003F025EF03F038C033F02050080DB90E81
:10061800F324D96E000EF420DA6EDF50346E332ADC
:1006280018EF03F0D8903432332E16EF03F034501D
:10063800010B376E37B002D0839601D08386DDEF89
:1006480005F0040E38183910D8A42DEF03F02FEF59
:1006580003F057EF03F0040E35183610D8A437EF1F
:1006680003F039EF03F057EF03F038C033F02050B0
:10067800080DBA0EF324D96E000EF420DA6EDF509E
:10068800346E332A4AEF03F0D8903432332E48EFD1
:1006980003F03450010B376E37B002D0809801D088
:1006A8008088DDEF05F0030E38183910D8A45FEF05
:1006B80003F061EF03F089EF03F0040E35183610EC
:1006C800D8A469EF03F06BEF03F089EF03F038C0AB
:1006D80033F02050080DBA0EF324D96E000EF42022
:1006E800DA6EDF50346E332A7CEF03F0D890343260
:1006F800332E7AEF03F03450010B376E37B002D047
:10070800819801D08188DDEF05F0020E3818391084
:10071800D8A491EF03F093EF03F0BBEF03F0040EBE
:1007280035183610D8A49BEF03F09DEF03F0BBEF0C
:1007380003F038C033F02050080DBA0EF324D96EF8
:10074800000EF420DA6EDF50346E332AAEEF03F079
:10075800D8903432332EACEF03F03450010B376E9F
:1007680037B002D0829801D08288DDEF05F03804D6
:100778003910D8A4C2EF03F0C4EF03F0ECEF03F094
:10078800040E35183610D8A4CCEF03F0CEEF03F0E2
:10079800ECEF03F038C033F02050080DBA0EF32404
:1007A800D96E000EF420DA6EDF50346E332ADFEF94
:1007B80003F0D8903432332EDDEF03F03450010BC0
:1007C800376E37B002D0839801D08388DDEF05F00B
:1007D800040E38183910D8A4F4EF03F0F6EF03F03C
:1007E8001EEF04F0050E35183610D8A4FEEF03F0FE
:1007F80000EF04F01EEF04F038C033F02050080D6D
:10080800BB0EF324D96E000EF420DA6EDF50346E7E
:10081800332A11EF04F0D8903432332E0FEF04F05E
:100828003450010B376E37B002D0809A01D0808ADD
:10083800DDEF05F0030E38183910D8A426EF04F0C0
:1008480028EF04F050EF04F0050E35183610D8A440
:1008580030EF04F032EF04F050EF04F038C033F01A
:100868002050080DBB0EF324D96E000EF420DA6E6A
:10087800DF50346E332A43EF04F0D8903432332EED
:1008880041EF04F03450010B376E37B002D0819A33
:1008980001D0818ADDEF05F0020E38183910D8A48E
:1008A80058EF04F05AEF04F082EF04F0050E351803
:1008B8003610D8A462EF04F064EF04F082EF04F07D
:1008C80038C033F02050080DBB0EF324D96E000E4B
:1008D800F420DA6EDF50346E332A75EF04F0D890C6
:1008E8003432332E73EF04F03450010B376E37B0C7
:1008F80002D0829A01D0828ADDEF05F038043910DF
:10090800D8A489EF04F08BEF04F0B3EF04F0050EE0
:1009180035183610D8A493EF04F095EF04F0B3EF30
:1009280004F038C033F02050080DBB0EF324D96E04
:10093800000EF420DA6EDF50346E332AA6EF04F08E
:10094800D8903432332EA4EF04F03450010B376EB4
:1009580037B002D0839A01D0838ADDEF05F0030E09
:1009680038183910D8A4BBEF04F0BDEF04F0E5EF58
:1009780004F0060E35183610D8A4C5EF04F0C7EFFA
:1009880004F0E5EF04F038C033F02050080DBC0E39
:10099800F324D96E000EF420DA6EDF50346E332A59
:1009A800D8EF04F0D8903432332ED6EF04F0345018
:1009B800010B376E37B002D0819C01D0818CDDEFFE
:1009C80005F0020E38183910D8A4EDEF04F0EFEF57
:1009D80004F017EF05F0060E35183610D8A4F7EF17
:1009E80004F0F9EF04F017EF05F038C033F02050A9
:1009F800080DBC0EF324D96E000EF420DA6EDF5019
:100A0800346E332A0AEF05F0D8903432332E08EFCB
:100A180005F03450010B376E37B002D0829C01D0FC
:100A2800828CDDEF05F038043910D8A41EEF05F0EC
:100A380020EF05F048EF05F0060E35183610D8A45B
:100A480028EF05F02AEF05F048EF05F038C033F03D
:100A58002050080DBC0EF324D96E000EF420DA6E77
:100A6800DF50346E332A3BEF05F0D8903432332E02
:100A780039EF05F03450010B376E37B002D0839C44
:100A880001D0838CDDEF05F0030E38183910D8A497
:100A980050EF05F052EF05F07AEF05F0070E351824
:100AA8003610D8A45AEF05F05CEF05F07AEF05F0A0
:100AB80038C033F02050080DBD0EF324D96E000E57
:100AC800F420DA6EDF50346E332A6DEF05F0D890DB
:100AD8003432332E6BEF05F03450010B376E37B0DC
:100AE80002D0819E01D0818EDDEF05F0020E38180C
:100AF8003910D8A482EF05F084EF05F0ACEF05F0CB
:100B0800070E35183610D8A48CEF05F08EEF05F0D7
:100B1800ACEF05F038C033F02050080DBD0EF324BB
:100B2800D96E000EF420DA6EDF50346E332A9FEF50
:100B380005F0D8903432332E9DEF05F03450010B78
:100B4800376E37B002D0829E01D0828EDDEF05F07D
:100B580038043910D8A4B3EF05F0B5EF05F0DDEF90
:100B680005F0070E35183610D8A4BDEF05F0BFEF15
:100B780005F0DDEF05F038C033F02050080DBD0E4C
:100B8800F324D96E000EF420DA6EDF50346E332A67
:100B9800D0EF05F0D8903432332ECEEF05F0345034
:100BA800010B376E37B002D0839E01D0838EDDEF04
:100BB80005F03806D8A0390639BEEDEF05F03950F2
:100BC80006E13804D8B0EBEF05F0EDEF05F011EFD2
:100BD80000F0354A362A36BEFBEF05F0365009E1FB
:100BE800080E355CD8A0FBEF05F0FDEF05F00DEF22
:100BF80000F0120007500810D8A405EF06F007EF20
:100C080006F0C5EF07F011501210D8A40EEF06F049
:100C180010EF06F021EF06F0800E0BEC15F0600ED9
:100C28000F24D96E000E1020DA6EDF50F5EC14F0A8
:100C3800100E0BEC15F0B5EF07F011041210D8A444
:100C480028EF06F02AEF06F03BEF06F0810E0BECDA
:100C580015F0600E0F24D96E000E1020DA6EDF50EA
:100C6800F5EC14F0100E0BEC15F0B5EF07F0020ED2
:100C780011181210D8A443EF06F045EF06F056EF0E
:100C880006F0820E0BEC15F0600E0F24D96E000EE4
:100C98001020DA6EDF50F5EC14F0100E0BEC15F0A6
:100CA800B5EF07F0030E11181210D8A45EEF06F086
:100CB80060EF06F071EF06F0830E0BEC15F0600E96
:100CC8000F24D96E000E1020DA6EDF50F5EC14F008
:100CD800100E0BEC15F0B5EF07F0040E11181210FA
:100CE800D8A479EF06F07BEF06F08CEF06F0840EBF
:100CF8000BEC15F0600E0F24D96E000E1020DA6E82
:100D0800DF50F5EC14F0100E0BEC15F0B5EF07F012
:100D1800050E11181210D8A494EF06F096EF06F0FD
:100D2800A7EF06F0850E0BEC15F0600E0F24D96EB8
:100D3800000E1020DA6EDF50F5EC14F0100E0BECFC
:100D480015F0B5EF07F0060E11181210D8A4AFEF82
:100D580006F0B1EF06F0C2EF06F0860E0BEC15F0C8
:100D6800600E0F24D96E000E1020DA6EDF50F5ECFD
:100D780014F0100E0BEC15F0B5EF07F0070E111874
:100D88001210D8A4CAEF06F0CCEF06F0DDEF06F09B
:100D9800870E0BEC15F0600E0F24D96E000E102094
:100DA800DA6EDF50F5EC14F0100E0BEC15F0B5EF21
:100DB80007F0080E11181210D8A4E5EF06F0E7EFB7
:100DC80006F0F8EF06F0880E0BEC15F0600E0F2415
:100DD800D96E000E1020DA6EDF50F5EC14F0100E0C
:100DE8000BEC15F0B5EF07F0090E11181210D8A486
:100DF80000EF07F002EF07F013EF07F0890E0BEC96
:100E080015F0600E0F24D96E000E1020DA6EDF5038
:100E1800F5EC14F0100E0BEC15F0B5EF07F00A0E18
:100E280011181210D8A41BEF07F01DEF07F02EEFD2
:100E380007F08A0E0BEC15F0600E0F24D96E000E29
:100E48001020DA6EDF50F5EC14F0100E0BEC15F0F4
:100E5800B5EF07F00B0E11181210D8A436EF07F0F3
:100E680038EF07F049EF07F08B0E0BEC15F0600E2A
:100E78000F24D96E000E1020DA6EDF50F5EC14F056
:100E8800100E0BEC15F0B5EF07F00C0E1118121040
:100E9800D8A451EF07F053EF07F064EF07F08C0E7A
:100EA8000BEC15F0600E0F24D96E000E1020DA6ED0
:100EB800DF50F5EC14F0100E0BEC15F0B5EF07F061
:100EC8000D0E11181210D8A46CEF07F06EEF07F092
:100ED8007FEF07F08D0E0BEC15F0600E0F24D96E26
:100EE800000E1020DA6EDF50F5EC14F0100E0BEC4B
:100EF80015F0B5EF07F00E0E11181210D8A487EFF1
:100F080007F089EF07F09AEF07F08E0E0BEC15F05B
:100F1800600E0F24D96E000E1020DA6EDF50F5EC4B
:100F280014F0100E0BEC15F0B5EF07F00F0E1118BA
:100F38001210D8A4A2EF07F0A4EF07F0B5EF07F05E
:100F48008F0E0BEC15F0600E0F24D96E000E1020DA
:100F5800DA6EDF50F5EC14F0100E0BEC15F0B5EF6F
:100F680007F0600E0F24D96E000E1020DA6EA60E60
:100F78001124E16E000E1220E26EDFCFE7FF53EF7F
:100F880009F011501210D8A4CCEF07F0CEEF07F0FB
:100F9800DDEF07F0800E0BEC15F00D50F5EC14F0BA
:100FA800100E0BEC15F00DC086F00EC087F053EF55
:100FB80009F011041210D8A4E4EF07F0E6EF07F0E7
:100FC800F5EF07F0810E0BEC15F00D50F5EC14F071
:100FD800100E0BEC15F00DC088F00EC089F053EF21
:100FE80009F0020E11181210D8A4FDEF07F0FFEF58
:100FF80007F00EEF08F0820E0BEC15F00D50F5EC33
:1010080014F0100E0BEC15F00DC08AF00EC08BF02A
:1010180053EF09F0030E11181210D8A416EF08F0B8
:1010280018EF08F027EF08F0830E0BEC15F00D50C1
:10103800F5EC14F0100E0BEC15F00DC08CF00EC092
:101048008DF053EF09F0040E11181210D8A42FEFE9
:1010580008F031EF08F040EF08F0840E0BEC15F0C3
:101068000D50F5EC14F0100E0BEC15F00DC08EF0D1
:101078000EC08FF053EF09F0050E11181210D8A406
:1010880048EF08F04AEF08F059EF08F0850E0BEC2E
:1010980015F00D50F5EC14F0100E0BEC15F00DC01A
:1010A80090F00EC091F053EF09F0060E11181210CF
:1010B800D8A461EF08F063EF08F072EF08F0860E2D
:1010C8000BEC15F00D50F5EC14F0100E0BEC15F0C0
:1010D8000DC092F00EC093F053EF09F0070E1118EF
:1010E8001210D8A47AEF08F07CEF08F08BEF08F024
:1010F800870E0BEC15F00D50F5EC14F0100E0BEC00
:1011080015F00DC094F00EC095F053EF09F0080EDD
:1011180011181210D8A493EF08F095EF08F0A4EF77
:1011280008F0880E0BEC15F00D50F5EC14F0100ECD
:101138000BEC15F00DC096F00EC097F053EF09F0C8
:10114800090E11181210D8A4ACEF08F0AEEF08F091
:10115800BDEF08F0890E0BEC15F00D50F5EC14F00E
:10116800100E0BEC15F00DC098F00EC099F053EF6F
:1011780009F00A0E11181210D8A4C5EF08F0C7EF2D
:1011880008F0D6EF08F08A0E0BEC15F00D50F5ECD0
:1011980014F0100E0BEC15F00DC09AF00EC09BF079
:1011A80053EF09F00B0E11181210D8A4DEEF08F057
:1011B800E0EF08F0EFEF08F08B0E0BEC15F00D5098
:1011C800F5EC14F0100E0BEC15F00DC09CF00EC0F1
:1011D8009DF053EF09F00C0E11181210D8A4F7EF78
:1011E80008F0F9EF08F008EF09F08C0E0BEC15F099
:1011F8000D50F5EC14F0100E0BEC15F00DC09EF030
:101208000EC09FF053EF09F00D0E11181210D8A45C
:1012180010EF09F012EF09F021EF09F08D0E0BEC39
:1012280015F00D50F5EC14F0100E0BEC15F00DC088
:10123800A0F00EC0A1F053EF09F00E0E1118121015
:10124800D8A429EF09F02BEF09F03AEF09F08E0E38
:101258000BEC15F00D50F5EC14F0100E0BEC15F02E
:101268000DC0A2F00EC0A3F053EF09F00F0E111835
:101278001210D8A442EF09F044EF09F053EF09F037
:101288008F0E0BEC15F00D50F5EC14F0100E0BEC66
:1012980015F00DC0A4F00EC0A5F053EF09F0120030
:1012A800080E2018D8A45BEF09F05DEF09F063EF92
:1012B80009F0000E0C6E000E0B6E91EF0BF0B0EC07
:1012C80015F04DEC13F0D9EC14F033503410D8B4B9
:1012D80070EF09F072EF09F091EF0BF01F5004085E
:1012E8003A6E010E3B6E3A2A7CEF09F0D8903B36F5
:1012F8003A2E7AEF09F02050080DB60E3C6E000E1B
:101308003D6EF3503C26F4503D221E503C24D96ECD
:10131800000E3D20DA6E3B50DF1A09EC00F0205039
:10132800D8A499EF09F09BEF09F0D2EF09F0400E2D
:101338000BEC15F0000E0101216F000E206F2050FC
:10134800080DB60E3A6E000E3B6EF3503A26F45076
:101358003B2220513A24D96E21513B20DA6EDF50CE
:10136800F5EC14F00101204B212B21BFC5EF09F04A
:10137800215109E1080E205DD8A0C5EF09F0C7EF9B
:1013880009F0A3EF09F0800E0BEC15F0000EF5EC58
:1013980014F0100E0BEC15F091EF0BF02004D8A40C
:1013A800D8EF09F0DAEF09F011EF0AF0480E0BEC6C
:1013B80015F0000E0101236F000E226F2050080D5A
:1013C800B60E3A6E000E3B6EF3503A26F4503B22AE
:1013D80022513A24D96E23513B20DA6EDF50F5ECC6
:1013E80014F00101224B232B23BF04EF0AF02351F1
:1013F80009E1080E225DD8A004EF0AF006EF0AF012
:10140800E2EF09F0800E0BEC15F0010EF5EC14F08C
:10141800100E0BEC15F091EF0BF0020E2018D8A46B
:1014280018EF0AF01AEF0AF051EF0AF0500E0BEC21
:1014380015F0000E0101256F000E246F2050080DD5
:10144800B60E3A6E000E3B6EF3503A26F4503B222D
:1014580024513A24D96E25513B20DA6EDF50F5EC41
:1014680014F00101244B252B25BF44EF0AF0255128
:1014780009E1080E245DD8A044EF0AF046EF0AF00F
:1014880022EF0AF0800E0BEC15F0020EF5EC14F0CA
:10149800100E0BEC15F091EF0BF0030E2018D8A4EA
:1014A80058EF0AF05AEF0AF091EF0AF0580E0BECD9
:1014B80015F0000E0101276F000E266F2050080D51
:1014C800B60E3A6E000E3B6EF3503A26F4503B22AD
:1014D80026513A24D96E27513B20DA6EDF50F5ECBD
:1014E80014F00101264B272B27BF84EF0AF0275160
:1014F80009E1080E265DD8A084EF0AF086EF0AF00D
:1015080062EF0AF0800E0BEC15F0030EF5EC14F008
:10151800100E0BEC15F091EF0BF0040E2018D8A468
:1015280098EF0AF09AEF0AF0D1EF0AF0600E0BEC90
:1015380015F0000E0101296F000E286F2050080DCC
:10154800B60E3A6E000E3B6EF3503A26F4503B222C
:1015580028513A24D96E29513B20DA6EDF50F5EC38
:1015680014F00101284B292B29BFC4EF0AF0295197
:1015780009E1080E285DD8A0C4EF0AF0C6EF0AF00A
:10158800A2EF0AF0800E0BEC15F0040EF5EC14F047
:10159800100E0BEC15F091EF0BF0050E2018D8A4E7
:1015A800D8EF0AF0DAEF0AF011EF0BF0680E0BEC47
:1015B80015F0000E01012B6F000E2A6F2050080D48
:1015C800B60E3A6E000E3B6EF3503A26F4503B22AC
:1015D8002A513A24D96E2B513B20DA6EDF50F5ECB4
:1015E80014F001012A4B2B2B2BBF04EF0BF02B51CE
:1015F80009E1080E2A5DD8A004EF0BF006EF0BF006
:10160800E2EF0AF0800E0BEC15F0050EF5EC14F085
:10161800100E0BEC15F091EF0BF0060E2018D8A465
:1016280018EF0BF01AEF0BF051EF0BF0700E0BECFC
:1016380015F0000E01012D6F000E2C6F2050080DC3
:10164800B60E3A6E000E3B6EF3503A26F4503B222B
:101658002C513A24D96E2D513B20DA6EDF50F5EC2F
:1016680014F001012C4B2D2B2DBF44EF0BF02D5105
:1016780009E1080E2C5DD8A044EF0BF046EF0BF003
:1016880022EF0BF0800E0BEC15F0060EF5EC14F0C3
:10169800100E0BEC15F091EF0BF0070E2018D8A4E4
:1016A80058EF0BF05AEF0BF091EF0BF0780E0BECB4
:1016B80015F0000E01012F6F000E2E6F2050080D3F
:1016C800B60E3A6E000E3B6EF3503A26F4503B22AB
:1016D8002E513A24D96E2F513B20DA6EDF50F5ECAB
:1016E80014F001012E4B2F2B2FBF84EF0BF02F513D
:1016F80009E1080E2E5DD8A084EF0BF086EF0BF001
:1017080062EF0BF0800E0BEC15F0070EF5EC14F001
:10171800100E0BEC15F091EF0BF01200295007E1B9
:10172800400E285CD8B09BEF0BF09DEF0BF0A1EFBB
:101738000BF0000E1D6E0EEF0DF0295009E1400E62
:10174800285CD8A0AAEF0BF0ACEF0BF0BBEF0BF0C6
:10175800295007E1800E285CD8B0B5EF0BF0B7EF41
:101768000BF0BBEF0BF0010E1D6E0EEF0DF02950C4
:1017780009E1800E285CD8A0C4EF0BF0C6EF0BF08F
:10178800D5EF0BF0295007E1C00E285CD8B0CFEF99
:101798000BF0D1EF0BF0D5EF0BF0020E1D6E0EEF34
:1017A8000DF0295009E1C00E285CD8A0DEEF0BF03F
:1017B800E0EF0BF0ECEF0BF02904D8B0E6EF0BF0FC
:1017C800E8EF0BF0ECEF0BF0030E1D6E0EEF0DF0D3
:1017D8002904D8A0F2EF0BF0F4EF0BF003EF0CF0B4
:1017E800400E285C010E2958D8B0FDEF0BF0FFEF32
:1017F8000BF003EF0CF0040E1D6E0EEF0DF0400E13
:10180800285C010E2958D8A00CEF0CF00EEF0CF054
:101818001DEF0CF0800E285C010E2958D8B017EF88
:101828000CF019EF0CF01DEF0CF0050E1D6E0EEF0D
:101838000DF0800E285C010E2958D8A026EF0CF078
:1018480028EF0CF037EF0CF0C00E285C010E295879
:10185800D8B031EF0CF033EF0CF037EF0CF0060E88
:101868001D6E0EEF0DF0C00E285C010E2958D8A091
:1018780040EF0CF042EF0CF04FEF0CF0020E295C39
:10188800D8B049EF0CF04BEF0CF04FEF0CF0070E0F
:101898001D6E0EEF0DF0020E295CD8A056EF0CF06D
:1018A80058EF0CF067EF0CF0400E285C020E295838
:1018B800D8B061EF0CF063EF0CF067EF0CF0080E96
:1018C8001D6E0EEF0DF0400E285C020E2958D8A0B0
:1018D80070EF0CF072EF0CF081EF0CF0800E285CCA
:1018E800020E2958D8B07BEF0CF07DEF0CF081EF99
:1018F8000CF0090E1D6E0EEF0DF0800E285C020E26
:101908002958D8A08AEF0CF08CEF0CF09BEF0CF064
:10191800C00E285C020E2958D8B095EF0CF097EF4E
:101928000CF09BEF0CF00A0E1D6E0EEF0DF0C00EC2
:10193800285C020E2958D8A0A4EF0CF0A6EF0CF0F2
:10194800B3EF0CF0030E295CD8B0ADEF0CF0AFEF9D
:101958000CF0B3EF0CF00B0E1D6E0EEF0DF0030E36
:10196800295CD8A0BAEF0CF0BCEF0CF0CBEF0CF070
:10197800400E285C030E2958D8B0C5EF0CF0C7EF0D
:101988000CF0CBEF0CF00C0E1D6E0EEF0DF0400EB0
:10199800285C030E2958D8A0D4EF0CF0D6EF0CF031
:1019A800E5EF0CF0800E285C030E2958D8B0DFEF65
:1019B8000CF0E1EF0CF0E5EF0CF00D0E1D6E0EEFE4
:1019C8000DF0800E285C030E2958D8A0EEEF0CF01D
:1019D800F0EF0CF0FFEF0CF0C00E285C030E295856
:1019E800D8B0F9EF0CF0FBEF0CF0FFEF0CF00E0E97
:1019F8001D6E0EEF0DF0C00E285C030E2958D8A0FE
:101A080008EF0DF00AEF0DF00EEF0DF00F0E1D6E42
:101A18000EEF0DF01D502A6E2B6A2A50115C1250E1
:101A2800800A2C6E2B50800A2C58D8B01EEF0DF06F
:101A380020EF0DF046EF0DF0000E2E6E000E2D6E0D
:101A48002BEF0DF0140E21EC15F02D4A2E2A1D5007
:101A58002A6E2B6A11502A5E12502B5A2A502D5C7E
:101A68002E50800A2C6E2B50800A2C58D8A03FEF9D
:101A78000DF041EF0DF026EF0DF01DC011F0126AC8
:101A88007AEF0DF01D502A6E2B6A11502A5C2B50EC
:101A9800800A2C6E1250800A2C58D8B056EF0DF0E0
:101AA80058EF0DF041EF0DF0000E306E000E2F6E66
:101AB80063EF0DF0100E21EC15F02F4A302A1D505F
:101AC800115C2A6E000E12582B6E2A502F5C305073
:101AD800800A2C6E2B50800A2C58D8A076EF0DF077
:101AE80078EF0DF05EEF0DF041EF0DF0120037ECDE
:101AF80015F00C0E0BEC15F0800E0BEC15F0200E0B
:101B0800F5EC14F0200EF5EC14F0200EF5EC14F0C2
:101B1800660EF5EC14F0690EF5EC14F06E0EF5ECAB
:101B280014F0690EF5EC14F0730EF5EC14F0680E71
:101B3800F5EC14F0650EF5EC14F0640EF5EC14F009
:101B4800200EF5EC14F0200EF5EC14F0200EF5EC58
:101B580014F0200EF5EC14F0200EF5EC14F0C00E85
:101B6800476E000E406E000E3F6E47500BEC15F0AE
:101B7800472AA60E3F24D96E000E4020DA6EDF50A9
:101B8800F5EC14F03F4A402A40BED4EF0DF0405027
:101B980009E1100E3F5CD8A0D4EF0DF0D6EF0DF0A0
:101BA800B9EF0DF0C00E476E000E446E000E436E86
:101BB80047500BEC15F0472AD8904334D96E44347B
:101BC800DA6E860ED926000EDA22DE2808E1DE2833
:101BD800D8B4F1EF0DF0F3EF0DF0FFEF0DF0D89062
:101BE8004334D96E4434DA6E860ED926000EDA22D2
:101BF800DF50F5EC14F0434A442A44BE0DEF0EF0D2
:101C0800445009E1100E435CD8A00DEF0EF00FEF21
:101C18000EF0DCEF0DF01C50D8B415EF0EF017EFF6
:101C28000EF081EF0EF0000E1C6EC00E476EA60E71
:101C3800336E000E346E45EC14F0860E336E000ED3
:101C4800346E77EC12F0000E466E000E456E47506B
:101C58000BEC15F0472AD8904534D96E4634DA6E25
:101C6800860ED926000EDA22DE2808E1DE28D8B44E
:101C780040EF0EF042EF0EF04EEF0EF0D8904534E4
:101C8800D96E4634DA6E860ED926000EDA22DF5077
:101C9800F5EC14F0454A462A46BE5CEF0EF0465075
:101CA80009E1100E455CD8A05CEF0EF05EEF0EF077
:101CB8002BEF0EF0C00E476E000E426E000E416E06
:101CC80047500BEC15F0472AA60E4124D96E000E9A
:101CD8004220DA6EDF50F5EC14F0414A422A42BE47
:101CE8007FEF0EF0425009E1100E415CD8A07FEF63
:101CF8000EF081EF0EF064EF0EF0120084B287EF61
:101D08000EF089EF0EF0AFEF0EF02504D8A48FEF98
:101D18000EF091EF0EF0AFEF0EF0000E256E1E5094
:101D2800336E346A010E3326000E342234BEA6EF19
:101D38000EF0345009E1080E335CD8A0A6EF0EF07F
:101D4800A8EF0EF0ACEF0EF0070E1E6E28EF0FF0A6
:101D58001E2A28EF0FF084B4B4EF0EF0B6EF0EF0A1
:101D6800D6EF0EF02404D8A4BCEF0EF0BEEF0EF0B0
:101D7800D6EF0EF0000E246E1E50336E346AFF0E3E
:101D88003324FF0E3420800BD8B4CDEF0EF0CFEF04
:101D98000EF0D3EF0EF0000E1E6E28EF0FF01E06A9
:101DA80028EF0FF084B6DBEF0EF0DDEF0EF0FDEF5D
:101DB8000EF02304D8A4E3EF0EF0E5EF0EF0FDEFEC
:101DC8000EF0000E236E1F50336E346AFF0E33245C
:101DD800FF0E3420800BD8B4F4EF0EF0F6EF0EF0BF
:101DE800FAEF0EF0000E1F6E28EF0FF01F0628EF17
:101DF8000FF084B002EF0FF004EF0FF028EF0FF0B0
:101E08002604D8A40AEF0FF00CEF0FF028EF0FF01C
:101E1800000E266E1F50336E346A010E3326000EF4
:101E2800342234BE21EF0FF0345009E1040E335C44
:101E3800D8A021EF0FF023EF0FF027EF0FF0030EDC
:101E48001F6E28EF0FF01F2A12002050D8A42FEF82
:101E58000FF031EF0FF03AEF0FF0080E2018D8B45A
:101E680038EF0FF03AEF0FF0B5EF0FF02350D8B47A
:101E780040EF0FF042EF0FF073EF0FF0000E236EFC
:101E880007500810D8A44BEF0FF04DEF0FF059EFA3
:101E98000FF0000E086E010E076EFF0E20240D6E67
:101EA8000E6AFF0E0E22B3EF0FF00D500E10D8A4DD
:101EB80060EF0FF062EF0FF06EEF0FF0FF0E2024CF
:101EC8000D6E0E6AFF0E0E22000E086E000E076ED3
:101ED800B3EF0FF00D06D8A00E06B3EF0FF02650A3
:101EE800D8B479EF0FF07BEF0FF0B3EF0FF0000EDF
:101EF800266E07500810D8A484EF0FF086EF0FF075
:101F080090EF0FF0000E086E010E076E000E0E6EB9
:101F1800000E0D6EB3EF0FF0FF0E346EFF0E356E30
:101F28002050366E376A34503626355037220D50D9
:101F3800361807E10E503718D8A4A5EF0FF0A7EF11
:101F48000FF0B1EF0FF0000E0E6E000E0D6E000ECA
:101F5800086E000E076EB3EF0FF00D4A0E2AFEEC66
:101F680005F012000600194A1A2AF294000ED76EDC
:101F7800D90ED66EF40E191806E11A04D8A4C7EFC4
:101F88000FF0C9EF0FF0CFEF0FF0010E1C6E000E2F
:101F98001A6E000E196E1E0E19181A10D8A4D7EF53
:101FA8000FF0D9EF0FF0DBEF0FF0010E1B6E9EACB8
:101FB800E0EF0FF0E2EF0FF0FBEF0FF00B500C101B
:101FC800D8A4E9EF0FF0EBEF0FF0FBEF0FF0C450E0
:101FD800326E316AC3503124176E000E3220186EEB
:101FE80017C028F018C029F092EC0BF09E9C19C07D
:101FF80027F01AC028F0000E2A6E030E296ECDECC9
:1020080011F027C013F028C014F017EF10F073EC8C
:1020180011F031EF10F07CEC14F031EF10F025ECFA
:1020280012F031EF10F013C031F014C032F032501A
:10203800000AD8B422EF10F031EF10F03150000A46
:10204800D8B40BEF10F0010AD8B40FEF10F0030A60
:10205800D8B413EF10F031EF10F0509211000B04C8
:102068000C10D8A43AEF10F03CEF10F076EF10F017
:102078002150D8B442EF10F044EF10F076EF10F092
:10208800000E216E000E0C6E000E0B6E202A000E44
:102098001F6E000E1E6E800E346E000E366E000E21
:1020A800356E34500BEC15F0342AA60E3524D96E53
:1020B800000E3620DA6EDF50F5EC14F0354A362A79
:1020C80036BE70EF10F0365009E1100E355CD8A01E
:1020D80070EF10F072EF10F055EF10F0FEEC05F015
:1020E800AAEF10F00B500C10D8A47DEF10F07FEF82
:1020F80010F08FEF10F02150D8B485EF10F087EF73
:1021080010F08FEF10F0000E216E000E0C6E020E14
:102118000B6EAAEF10F00B500C10D8A496EF10F02D
:1021280098EF10F0AAEF10F02250D8B49EEF10F0FC
:10213800A0EF10F0AAEF10F0000E226E000E0C6E49
:10214800010E0B6E000E0A6E010E096E120084B2AB
:10215800B0EF10F0B2EF10F0BAEF10F02550D8A49D
:10216800B8EF10F0BAEF10F0C9EF10F084B4BFEF79
:1021780010F0C1EF10F0CDEF10F02450D8B4C7EF35
:1021880010F0C9EF10F0CDEF10F008EC13F00FEFDE
:1021980011F084B0D2EF10F0D4EF10F0DCEF10F0B3
:1021A8002650D8A4DAEF10F0DCEF10F0EBEF10F0C7
:1021B80084B6E1EF10F0E3EF10F0EFEF10F02350EA
:1021C800D8B4E9EF10F0EBEF10F0EFEF10F029ECD6
:1021D8000FF00FEF11F084B8F4EF10F0F6EF10F0F5
:1021E800FEEF10F02250D8A4FCEF10F0FEEF10F034
:1021F8000DEF11F084BA03EF11F005EF11F00FEFB6
:1022080011F02150D8B40BEF11F00DEF11F00FEFD2
:1022180011F033EC10F012000EEC14F09EEC15F0F7
:10222800A9EC15F0C0EC12F0C2820B500C10D8A427
:1022380020EF11F022EF11F036EF11F02050D8A462
:1022480028EF11F02AEF11F02EEF11F0ADEC15F098
:1022580030EF11F0B0EC15F04DEC13F0ABEC10F0E2
:1022680018EF11F0020E0B180C10D8A43EEF11F065
:1022780040EF11F044EF11F07BEC0DF018EF11F086
:102288000B040C10D8A44BEF11F04DEF11F06FEFC9
:1022980011F0080E2018D8B454EF11F056EF11F0D1
:1022A8006BEF11F04DEC13F04AEC15F082EC0EF0E8
:1022B80009500A10D8B463EF11F065EF11F06BEF15
:1022C80011F06CEC15F0000E0A6E000E096E54EC5D
:1022D80009F018EF11F018EF11F007EF00F0010EF8
:1022E800876E9BEF11F03F0E886ECCEF11F0060E53
:1022F800886ECCEF11F05B0E886ECCEF11F04F0EAC
:10230800886ECCEF11F0660E886ECCEF11F06D0E72
:10231800886ECCEF11F07D0E886ECCEF11F0070EB1
:10232800886ECCEF11F07F0E886ECCEF11F0205044
:10233800276E286A2850000AD8B4A5EF11F0CCEF10
:1023480011F02750000AD8B477EF11F0010AD8B479
:102358007BEF11F0030AD8B47FEF11F0010AD8B46B
:1023680083EF11F0070AD8B487EF11F0010AD8B447
:102378008BEF11F0030AD8B48FEF11F0010AD8B42B
:1023880093EF11F00F0AD8B497EF11F0CCEF11F0DA
:102398001200000E2C6E28BED6EF11F0D4EF11F00B
:1023A800DCEF11F0276C281ED8B0282A010E2C6EFD
:1023B8002ABEE3EF11F0E1EF11F0E7EF11F0296C1D
:1023C8002A1ED8B02A2A29502A10D8B4EEEF11F0C4
:1023D800F0EF11F014EF12F0010E2B6EF8EF11F080
:1023E800D89029362A362B2A2AAEFDEF11F0FFEFB6
:1023F80011F0F4EF11F02950275C2A502858D8A082
:1024080008EF12F00AEF12F00EEF12F02950275ED3
:102418002A50285AD8902A3229322B2EFFEF11F051
:102428002C50D8B41AEF12F01CEF12F020EF12F073
:10243800276C281ED8B0282A27C027F028C028F0E3
:102448001200080E876E49EF12F03F0E886E76EF85
:1024580012F0060E886E76EF12F05B0E886E76EF3D
:1024680012F04F0E886E76EF12F0660E886E76EFD9
:1024780012F06D0E886E76EF12F07D0E886E76EF94
:1024880012F0070E886E76EF12F01E50276E286A3B
:102498002850000AD8B453EF12F076EF12F0275004
:1024A800000AD8B429EF12F0010AD8B42DEF12F0BF
:1024B800030AD8B431EF12F0010AD8B435EF12F09C
:1024C800070AD8B439EF12F0010AD8B43DEF12F078
:1024D800030AD8B441EF12F0010AD8B445EF12F05C
:1024E80076EF12F0120033C0D9FF34C0DAFFDECF26
:1024F80039F0DDCF3AF0000E3C6E000E3B6E3BC06B
:1025080035F03CC036F0D8903536363633C037F023
:1025180034C038F03550372636503822020E37246A
:10252800D96E000E3820DA6ED8903B34E16E3C3418
:10253800E26E3350E1263450E222DECFE6FFDDCFF3
:10254800E5FF3B4A3C2A3CBEB3EF12F03C5009E1A0
:102558000F0E3B5CD8A0B3EF12F0B5EF12F083EF8B
:1025680012F020EE1EF03350D9263450DA2239C04A
:10257800DEFF3AC0DDFF1200100E996E000E936E5A
:10258800000E956E310EC26E000EC16EAA0EC06EA0
:10259800000EC46E000EC36E000E3A6E000E3B6E47
:1025A8003A50080DB60E386E000E396EF3503826C4
:1025B800F45039223B503824D96E000E3920DA6E97
:1025C800000EDF6E3B2A070E3B64EDEF12F0EFEFD3
:1025D80012F0D4EF12F03A2A070E3A64F6EF12F02E
:1025E800F8EF12F0D2EF12F0D1EC13F01B50D8B480
:1025F80000EF13F002EF13F007EF13F00E0E0BECE1
:1026080015F0000E1B6E12002550D8B40EEF13F013
:1026180010EF13F02AEF13F0000E256E000E086E6F
:10262800000E076E0F501010D8A41DEF13F01FEF07
:1026380013F025EF13F0000E106E240E0F6E4AEF04
:1026480013F00F06D8A010064AEF13F02450D8B4A0
:1026580030EF13F032EF13F04AEF13F0000E246E50
:10266800000E086E000E076E240E0F181010D8A466
:1026780040EF13F042EF13F048EF13F0000E106E26
:10268800000E0F6E4AEF13F00F4A102AFEEC05F009
:10269800120084A252EF13F054EF13F058EF13F026
:1026A800010E256E8FEF13F084A45DEF13F05FEF3A
:1026B80013F063EF13F0010E246E8FEF13F084A074
:1026C80068EF13F06AEF13F06EEF13F0010E266E49
:1026D8008FEF13F084A673EF13F075EF13F079EF13
:1026E80013F0010E236E8FEF13F084A87EEF13F022
:1026F80080EF13F084EF13F0010E226E8FEF13F0CA
:1027080084AA89EF13F08BEF13F08FEF13F0010E0B
:10271800216E8FEF13F01200B80EF66E2A0EF76EC8
:10272800000EF86E01EE00F010EE20F00900F5CF73
:10273800EEFFE550E150FAE15C0EF66E290EF76EF9
:10274800000EF86E00EE60F010EE56F00900F5CFBE
:10275800EEFFE550E150FAE14A0EF66E2B0EF76EE9
:10276800000EF86E00EE48F010EE08F00900F5CF04
:10277800EEFFE550E150FAE100EEB6F0400EEE6AE9
:10278800E806FDE100EE01F0260EEE6AE806FDE13E
:1027980050905092000110EF11F0020E376E040EA7
:1027A800366EBA0EE82EFED7362EFCD7372EFAD75D
:1027B80000D0300E836E8CEC15F04E0E366EEB0E9C
:1027C800E82EFED7362EFCD700F0300E836E8CEC48
:1027D80015F0040E366EE40EE82EFED7362EFCD722
:1027E80000D0300E836E8CEC15F01A0E366EF80E93
:1027F800E82EFED7362EFCD700D0200E836E8CEC48
:1028080015F02C0E0BEC15F00C0E0BEC15F07CEC07
:1028180015F01200000E926E000E936E000E946E6C
:10282800000E956E3F0E966E000E976E000E986E17
:10283800000E996E000E9A6E000E896E000E8A6E5A
:10284800000E8B6E000E8C6E000E8D6E000E8E6E5E
:10285800000E8F6E000E906E000E916E000E806E50
:10286800000E816E000E826E000E836E000E846E66
:10287800000E856E000E866E000E876E000E886E46
:10288800120033C0D9FF34C0DAFFDF50376E000EB4
:10289800396E000E386E38503324356E3950342076
:1028A800366E010E3524D96E000E3620DA6E385099
:1028B8003324E16E39503420E26EDFCFE7FF384A27
:1028C800392A39BE71EF14F0395009E10F0E385C1E
:1028D800D8A071EF14F073EF14F04FEF14F020EE5E
:1028E8000FF03350D9263450DA2237C0DFFF1200F8
:1028F800040E876E90EF14F03F0E886EADEF14F063
:10290800060E886EADEF14F05B0E886EADEF14F016
:102918004F0E886EADEF14F01F50276E286A2850AE
:10292800000AD8B49AEF14F0ADEF14F02750000A5B
:10293800D8B480EF14F0010AD8B484EF14F0030A75
:10294800D8B488EF14F0010AD8B48CEF14F0ADEFC6
:1029580014F01200206162636465666768696A6BD7
:102968006C6D6E6F707172737475767778797A3072
:1029780031323334353637383900FFFFFFFFFFFF78
:10298800FFFFFFFFFFFFFFFFFFFFFFFFFFFFFFFF4F
:10299800FFFFFFFFFFFFFFFFFFFF20202020202079
:1029A800202020202020202020202250D8B4DFEF13
:1029B80014F0E1EF14F0F0EF14F084B8E6EF14F03F
:1029C800E8EF14F0F0EF14F0000E226E000E346EF3
:1029D800010E336EF4EF14F0000E346E000E336EF9
:1029E8001200336E8A8483500F0B836E3350F00BC2
:1029F8008310836E8CEC15F083500F0B836E333885
:102A0800F00BF00B8310836E8CEC15F01200336E14
:102A18008A9483500F0B836E3350F00B8310836EB0
:102A28008CEC15F083500F0B836E3338F00BF00BE2
:102A38008310836E8CEC15F01200276E8A948350F5
:102A48000F0B836E2750F00B8310836E95EC15F0F7
:102A580083500F0B836E2738F00BF00B8310836EB7
:102A680095EC15F01200000E926E000E936E000E9B
:102A7800946E000E956E000E966E000E976E000E08
:102A8800986E000E996E000E9A6E120084BA4FEF7F
:102A980015F051EF15F05BEF15F02150D8B457EF52
:102AA80015F059EF15F05BEF15F033EC10F012004C
:102AB800202020202020202020202020202020200E
:102AC8003F065B4F666D7D077F6F777C585E797137
:102AD8007CEC15F0D1EC13F00E0E0BEC15F0000E9B
:102AE800896E000E8A6E000E8B6E000E8C6E1200C0
:102AF800010E0BEC15F0020E356E860E346E990E33
:102B0800E82EFED7342EFCD7352EFAD700F0120067
:102B18008A8A640EE82EFED78A9A640EE82EFED7BB
:102B280012008A8A640EE82EFED78A9A640EE82E6E
:102B3800FED71200C70ED56E000ED76ED90ED66E10
:102B4800120000000A1F1F0E0400F28AF294F28E8F
:0E2B58001200360E966E12003F0E966E1200A0
:020000040020DA
:08000000FFFFFFFFFFFFFFFF00
:020000040030CA
:0E000000FF06191EF38301FFFFC0FFE0FF4063
:00000001FF
